{
  "contractName": "DavinciToken",
  "abi": [
    {
      "inputs": [
        {
          "internalType": "string",
          "name": "name",
          "type": "string"
        },
        {
          "internalType": "string",
          "name": "symbol",
          "type": "string"
        },
        {
          "internalType": "address",
          "name": "newOwner",
          "type": "address"
        },
        {
          "internalType": "string",
          "name": "contractURI",
          "type": "string"
        },
        {
          "internalType": "string",
          "name": "tokenURIPrefix",
          "type": "string"
        }
      ],
      "stateMutability": "nonpayable",
      "type": "constructor"
    },
    {
      "anonymous": false,
      "inputs": [
        {
          "indexed": true,
          "internalType": "address",
          "name": "owner",
          "type": "address"
        },
        {
          "indexed": true,
          "internalType": "address",
          "name": "approved",
          "type": "address"
        },
        {
          "indexed": true,
          "internalType": "uint256",
          "name": "tokenId",
          "type": "uint256"
        }
      ],
      "name": "Approval",
      "type": "event"
    },
    {
      "anonymous": false,
      "inputs": [
        {
          "indexed": true,
          "internalType": "address",
          "name": "owner",
          "type": "address"
        },
        {
          "indexed": true,
          "internalType": "address",
          "name": "operator",
          "type": "address"
        },
        {
          "indexed": false,
          "internalType": "bool",
          "name": "approved",
          "type": "bool"
        }
      ],
      "name": "ApprovalForAll",
      "type": "event"
    },
    {
      "anonymous": false,
      "inputs": [
        {
          "indexed": true,
          "internalType": "address",
          "name": "previousOwner",
          "type": "address"
        },
        {
          "indexed": true,
          "internalType": "address",
          "name": "newOwner",
          "type": "address"
        }
      ],
      "name": "OwnershipTransferred",
      "type": "event"
    },
    {
      "anonymous": false,
      "inputs": [
        {
          "indexed": false,
          "internalType": "uint256",
          "name": "tokenId",
          "type": "uint256"
        },
        {
          "indexed": false,
          "internalType": "address[]",
          "name": "recipients",
          "type": "address[]"
        },
        {
          "indexed": false,
          "internalType": "uint256[]",
          "name": "bps",
          "type": "uint256[]"
        }
      ],
      "name": "SecondarySaleFees",
      "type": "event"
    },
    {
      "anonymous": false,
      "inputs": [
        {
          "indexed": true,
          "internalType": "address",
          "name": "from",
          "type": "address"
        },
        {
          "indexed": true,
          "internalType": "address",
          "name": "to",
          "type": "address"
        },
        {
          "indexed": true,
          "internalType": "uint256",
          "name": "tokenId",
          "type": "uint256"
        }
      ],
      "name": "Transfer",
      "type": "event"
    },
    {
      "inputs": [
        {
          "internalType": "address",
          "name": "to",
          "type": "address"
        },
        {
          "internalType": "uint256",
          "name": "tokenId",
          "type": "uint256"
        }
      ],
      "name": "approve",
      "outputs": [],
      "stateMutability": "nonpayable",
      "type": "function"
    },
    {
      "inputs": [
        {
          "internalType": "address",
          "name": "owner",
          "type": "address"
        }
      ],
      "name": "balanceOf",
      "outputs": [
        {
          "internalType": "uint256",
          "name": "",
          "type": "uint256"
        }
      ],
      "stateMutability": "view",
      "type": "function"
    },
    {
      "inputs": [
        {
          "internalType": "uint256",
          "name": "tokenId",
          "type": "uint256"
        }
      ],
      "name": "burn",
      "outputs": [],
      "stateMutability": "nonpayable",
      "type": "function"
    },
    {
      "inputs": [],
      "name": "contractURI",
      "outputs": [
        {
          "internalType": "string",
          "name": "",
          "type": "string"
        }
      ],
      "stateMutability": "view",
      "type": "function"
    },
    {
      "inputs": [
        {
          "internalType": "uint256",
          "name": "",
          "type": "uint256"
        },
        {
          "internalType": "uint256",
          "name": "",
          "type": "uint256"
        }
      ],
      "name": "fees",
      "outputs": [
        {
          "internalType": "address payable",
          "name": "recipient",
          "type": "address"
        },
        {
          "internalType": "uint256",
          "name": "value",
          "type": "uint256"
        }
      ],
      "stateMutability": "view",
      "type": "function"
    },
    {
      "inputs": [
        {
          "internalType": "uint256",
          "name": "tokenId",
          "type": "uint256"
        }
      ],
      "name": "getApproved",
      "outputs": [
        {
          "internalType": "address",
          "name": "",
          "type": "address"
        }
      ],
      "stateMutability": "view",
      "type": "function"
    },
    {
      "inputs": [
        {
          "internalType": "uint256",
          "name": "id",
          "type": "uint256"
        }
      ],
      "name": "getFeeBps",
      "outputs": [
        {
          "internalType": "uint256[]",
          "name": "",
          "type": "uint256[]"
        }
      ],
      "stateMutability": "view",
      "type": "function"
    },
    {
      "inputs": [
        {
          "internalType": "uint256",
          "name": "id",
          "type": "uint256"
        }
      ],
      "name": "getFeeRecipients",
      "outputs": [
        {
          "internalType": "address payable[]",
          "name": "",
          "type": "address[]"
        }
      ],
      "stateMutability": "view",
      "type": "function"
    },
    {
      "inputs": [
        {
          "internalType": "address",
          "name": "owner",
          "type": "address"
        },
        {
          "internalType": "address",
          "name": "operator",
          "type": "address"
        }
      ],
      "name": "isApprovedForAll",
      "outputs": [
        {
          "internalType": "bool",
          "name": "",
          "type": "bool"
        }
      ],
      "stateMutability": "view",
      "type": "function"
    },
    {
      "inputs": [],
      "name": "name",
      "outputs": [
        {
          "internalType": "string",
          "name": "",
          "type": "string"
        }
      ],
      "stateMutability": "view",
      "type": "function"
    },
    {
      "inputs": [],
      "name": "owner",
      "outputs": [
        {
          "internalType": "address",
          "name": "",
          "type": "address"
        }
      ],
      "stateMutability": "view",
      "type": "function"
    },
    {
      "inputs": [
        {
          "internalType": "uint256",
          "name": "tokenId",
          "type": "uint256"
        }
      ],
      "name": "ownerOf",
      "outputs": [
        {
          "internalType": "address",
          "name": "",
          "type": "address"
        }
      ],
      "stateMutability": "view",
      "type": "function"
    },
    {
      "inputs": [],
      "name": "renounceOwnership",
      "outputs": [],
      "stateMutability": "nonpayable",
      "type": "function"
    },
    {
      "inputs": [
        {
          "internalType": "address",
          "name": "from",
          "type": "address"
        },
        {
          "internalType": "address",
          "name": "to",
          "type": "address"
        },
        {
          "internalType": "uint256",
          "name": "tokenId",
          "type": "uint256"
        }
      ],
      "name": "safeTransferFrom",
      "outputs": [],
      "stateMutability": "nonpayable",
      "type": "function"
    },
    {
      "inputs": [
        {
          "internalType": "address",
          "name": "from",
          "type": "address"
        },
        {
          "internalType": "address",
          "name": "to",
          "type": "address"
        },
        {
          "internalType": "uint256",
          "name": "tokenId",
          "type": "uint256"
        },
        {
          "internalType": "bytes",
          "name": "_data",
          "type": "bytes"
        }
      ],
      "name": "safeTransferFrom",
      "outputs": [],
      "stateMutability": "nonpayable",
      "type": "function"
    },
    {
      "inputs": [
        {
          "internalType": "address",
          "name": "to",
          "type": "address"
        },
        {
          "internalType": "bool",
          "name": "approved",
          "type": "bool"
        }
      ],
      "name": "setApprovalForAll",
      "outputs": [],
      "stateMutability": "nonpayable",
      "type": "function"
    },
    {
      "inputs": [
        {
          "internalType": "bytes4",
          "name": "interfaceId",
          "type": "bytes4"
        }
      ],
      "name": "supportsInterface",
      "outputs": [
        {
          "internalType": "bool",
          "name": "",
          "type": "bool"
        }
      ],
      "stateMutability": "view",
      "type": "function"
    },
    {
      "inputs": [],
      "name": "symbol",
      "outputs": [
        {
          "internalType": "string",
          "name": "",
          "type": "string"
        }
      ],
      "stateMutability": "view",
      "type": "function"
    },
    {
      "inputs": [
        {
          "internalType": "uint256",
          "name": "index",
          "type": "uint256"
        }
      ],
      "name": "tokenByIndex",
      "outputs": [
        {
          "internalType": "uint256",
          "name": "",
          "type": "uint256"
        }
      ],
      "stateMutability": "view",
      "type": "function"
    },
    {
      "inputs": [
        {
          "internalType": "address",
          "name": "owner",
          "type": "address"
        },
        {
          "internalType": "uint256",
          "name": "index",
          "type": "uint256"
        }
      ],
      "name": "tokenOfOwnerByIndex",
      "outputs": [
        {
          "internalType": "uint256",
          "name": "",
          "type": "uint256"
        }
      ],
      "stateMutability": "view",
      "type": "function"
    },
    {
      "inputs": [
        {
          "internalType": "uint256",
          "name": "tokenId",
          "type": "uint256"
        }
      ],
      "name": "tokenURI",
      "outputs": [
        {
          "internalType": "string",
          "name": "",
          "type": "string"
        }
      ],
      "stateMutability": "view",
      "type": "function"
    },
    {
      "inputs": [],
      "name": "tokenURIPrefix",
      "outputs": [
        {
          "internalType": "string",
          "name": "",
          "type": "string"
        }
      ],
      "stateMutability": "view",
      "type": "function"
    },
    {
      "inputs": [],
      "name": "totalSupply",
      "outputs": [
        {
          "internalType": "uint256",
          "name": "",
          "type": "uint256"
        }
      ],
      "stateMutability": "view",
      "type": "function"
    },
    {
      "inputs": [
        {
          "internalType": "address",
          "name": "from",
          "type": "address"
        },
        {
          "internalType": "address",
          "name": "to",
          "type": "address"
        },
        {
          "internalType": "uint256",
          "name": "tokenId",
          "type": "uint256"
        }
      ],
      "name": "transferFrom",
      "outputs": [],
      "stateMutability": "nonpayable",
      "type": "function"
    },
    {
      "inputs": [
        {
          "internalType": "address",
          "name": "newOwner",
          "type": "address"
        }
      ],
      "name": "transferOwnership",
      "outputs": [],
      "stateMutability": "nonpayable",
      "type": "function"
    },
    {
      "inputs": [
        {
          "internalType": "uint256",
          "name": "tokenId",
          "type": "uint256"
        },
        {
          "internalType": "uint8",
          "name": "v",
          "type": "uint8"
        },
        {
          "internalType": "bytes32",
          "name": "r",
          "type": "bytes32"
        },
        {
          "internalType": "bytes32",
          "name": "s",
          "type": "bytes32"
        },
        {
          "components": [
            {
              "internalType": "address payable",
              "name": "recipient",
              "type": "address"
            },
            {
              "internalType": "uint256",
              "name": "value",
              "type": "uint256"
            }
          ],
          "internalType": "struct ERC721Base.Fee[]",
          "name": "_fees",
          "type": "tuple[]"
        },
        {
          "internalType": "string",
          "name": "tokenURI",
          "type": "string"
        }
      ],
      "name": "mint",
      "outputs": [],
      "stateMutability": "nonpayable",
      "type": "function"
    },
    {
      "inputs": [
        {
          "internalType": "string",
          "name": "tokenURIPrefix",
          "type": "string"
        }
      ],
      "name": "setTokenURIPrefix",
      "outputs": [],
      "stateMutability": "nonpayable",
      "type": "function"
    },
    {
      "inputs": [
        {
          "internalType": "string",
          "name": "contractURI",
          "type": "string"
        }
      ],
      "name": "setContractURI",
      "outputs": [],
      "stateMutability": "nonpayable",
      "type": "function"
    }
  ],
  "bytecode": "0x60806040523480156200001157600080fd5b50604051620053a7380380620053a7833981810160405281019062000037919062000615565b84848383808260006200004f6200023460201b60201c565b9050806000806101000a81548173ffffffffffffffffffffffffffffffffffffffff021916908373ffffffffffffffffffffffffffffffffffffffff1602179055508073ffffffffffffffffffffffffffffffffffffffff16600073ffffffffffffffffffffffffffffffffffffffff167f8be0079c531659141344cd1fd0a4f28419497f9722a3daafe3b4186f6b6457e060405160405180910390a350620001056301ffc9a760e01b6200023c60201b60201c565b6200011d63b779958460e01b6200023c60201b60201c565b806002908051906020019062000135929190620004fc565b506200014e63e8a3d48560e01b6200023c60201b60201c565b50806003908051906020019062000167929190620004fc565b5050620001816380ac58cd60e01b6200023c60201b60201c565b6200019963780e9d6360e01b6200023c60201b60201c565b83600d9080519060200190620001b1929190620004fc565b5082600e9080519060200190620001ca929190620004fc565b50620001e3635b5e139f60e01b6200023c60201b60201c565b50505050620002187fe37243f27916e395706434720b54132b80ef5cc8c56f39b0df6485e8dfb697cf6200023c60201b60201c565b62000229836200031460201b60201c565b50505050506200093d565b600033905090565b63ffffffff60e01b817bffffffffffffffffffffffffffffffffffffffffffffffffffffffff19161415620002a8576040517f08c379a00000000000000000000000000000000000000000000000000000000081526004016200029f9062000809565b60405180910390fd5b6001806000837bffffffffffffffffffffffffffffffffffffffffffffffffffffffff19167bffffffffffffffffffffffffffffffffffffffffffffffffffffffff1916815260200190815260200160002060006101000a81548160ff02191690831515021790555050565b620003246200023460201b60201c565b73ffffffffffffffffffffffffffffffffffffffff166200034a620004d360201b60201c565b73ffffffffffffffffffffffffffffffffffffffff1614620003a3576040517f08c379a00000000000000000000000000000000000000000000000000000000081526004016200039a906200082b565b60405180910390fd5b600073ffffffffffffffffffffffffffffffffffffffff168173ffffffffffffffffffffffffffffffffffffffff16141562000416576040517f08c379a00000000000000000000000000000000000000000000000000000000081526004016200040d90620007e7565b60405180910390fd5b8073ffffffffffffffffffffffffffffffffffffffff1660008054906101000a900473ffffffffffffffffffffffffffffffffffffffff1673ffffffffffffffffffffffffffffffffffffffff167f8be0079c531659141344cd1fd0a4f28419497f9722a3daafe3b4186f6b6457e060405160405180910390a3806000806101000a81548173ffffffffffffffffffffffffffffffffffffffff021916908373ffffffffffffffffffffffffffffffffffffffff16021790555050565b60008060009054906101000a900473ffffffffffffffffffffffffffffffffffffffff16905090565b828054600181600116156101000203166002900490600052602060002090601f016020900481019282601f106200053f57805160ff191683800117855562000570565b8280016001018555821562000570579182015b828111156200056f57825182559160200191906001019062000552565b5b5090506200057f919062000583565b5090565b5b808211156200059e57600081600090555060010162000584565b5090565b600081519050620005b38162000923565b92915050565b600082601f830112620005cb57600080fd5b8151620005e2620005dc826200087b565b6200084d565b91508082526020830160208301858383011115620005ff57600080fd5b6200060c838284620008ed565b50505092915050565b600080600080600060a086880312156200062e57600080fd5b600086015167ffffffffffffffff8111156200064957600080fd5b6200065788828901620005b9565b955050602086015167ffffffffffffffff8111156200067557600080fd5b6200068388828901620005b9565b94505060406200069688828901620005a2565b935050606086015167ffffffffffffffff811115620006b457600080fd5b620006c288828901620005b9565b925050608086015167ffffffffffffffff811115620006e057600080fd5b620006ee88828901620005b9565b9150509295509295909350565b60006200070a602683620008a8565b91507f4f776e61626c653a206e6577206f776e657220697320746865207a65726f206160008301527f64647265737300000000000000000000000000000000000000000000000000006020830152604082019050919050565b600062000772601c83620008a8565b91507f4552433136353a20696e76616c696420696e74657266616365206964000000006000830152602082019050919050565b6000620007b4602083620008a8565b91507f4f776e61626c653a2063616c6c6572206973206e6f7420746865206f776e65726000830152602082019050919050565b600060208201905081810360008301526200080281620006fb565b9050919050565b60006020820190508181036000830152620008248162000763565b9050919050565b600060208201905081810360008301526200084681620007a5565b9050919050565b6000604051905081810181811067ffffffffffffffff821117156200087157600080fd5b8060405250919050565b600067ffffffffffffffff8211156200089357600080fd5b601f19601f8301169050602081019050919050565b600082825260208201905092915050565b6000620008c682620008cd565b9050919050565b600073ffffffffffffffffffffffffffffffffffffffff82169050919050565b60005b838110156200090d578082015181840152602081019050620008f0565b838111156200091d576000848401525b50505050565b6200092e81620008b9565b81146200093a57600080fd5b50565b614a5a806200094d6000396000f3fe608060405234801561001057600080fd5b50600436106101c45760003560e01c806370a08231116100f9578063b88d4fde11610097578063c87b56dd11610071578063c87b56dd14610516578063e8a3d48514610546578063e985e9c514610564578063f2fde38b14610594576101c4565b8063b88d4fde146104ac578063b9c4d9fb146104c8578063c0ac9983146104f8576101c4565b8063938e3d7b116100d3578063938e3d7b1461043a57806395d89b411461045657806399e0dd7c14610474578063a22cb46514610490576101c4565b806370a08231146103e2578063715018a6146104125780638da5cb5b1461041c576101c4565b80632f745c59116101665780634f6ccce7116101405780634f6ccce7146103355780636308f1cd146103655780636352211e14610396578063672a9400146103c6576101c4565b80632f745c59146102cd57806342842e0e146102fd57806342966c6814610319576101c4565b8063095ea7b3116101a2578063095ea7b3146102475780630ebd4c7f1461026357806318160ddd1461029357806323b872dd146102b1576101c4565b806301ffc9a7146101c957806306fdde03146101f9578063081812fc14610217575b600080fd5b6101e360048036038101906101de91906133bd565b6105b0565b6040516101f09190614282565b60405180910390f35b610201610618565b60405161020e91906142e2565b60405180910390f35b610231600480360381019061022c9190613450565b6106b6565b60405161023e91906141ae565b60405180910390f35b610261600480360381019061025c9190613381565b61073b565b005b61027d60048036038101906102789190613450565b6108f6565b60405161028a9190614260565b60405180910390f35b61029b610a64565b6040516102a89190614624565b60405180910390f35b6102cb60048036038101906102c6919061327b565b610a71565b005b6102e760048036038101906102e29190613381565b610ad1565b6040516102f49190614624565b60405180910390f35b6103176004803603810190610312919061327b565b610b7a565b005b610333600480360381019061032e9190613450565b610b9a565b005b61034f600480360381019061034a9190613450565b610bf6565b60405161035c9190614624565b60405180910390f35b61037f600480360381019061037a9190613479565b610c60565b60405161038d929190614215565b60405180910390f35b6103b060048036038101906103ab9190613450565b610cbe565b6040516103bd91906141ae565b60405180910390f35b6103e060048036038101906103db91906134b5565b610d70565b005b6103fc60048036038101906103f79190613216565b610e9e565b6040516104099190614624565b60405180910390f35b61041a610f5d565b005b610424611097565b60405161043191906141ae565b60405180910390f35b610454600480360381019061044f919061340f565b6110c0565b005b61045e611148565b60405161046b91906142e2565b60405180910390f35b61048e6004803603810190610489919061340f565b6111e6565b005b6104aa60048036038101906104a59190613345565b61126e565b005b6104c660048036038101906104c191906132ca565b6113ef565b005b6104e260048036038101906104dd9190613450565b611451565b6040516104ef919061423e565b60405180910390f35b6105006115ed565b60405161050d91906142e2565b60405180910390f35b610530600480360381019061052b9190613450565b61168b565b60405161053d91906142e2565b60405180910390f35b61054e6116e5565b60405161055b91906142e2565b60405180910390f35b61057e6004803603810190610579919061323f565b611783565b60405161058b9190614282565b60405180910390f35b6105ae60048036038101906105a99190613216565b611817565b005b600060016000837bffffffffffffffffffffffffffffffffffffffffffffffffffffffff19167bffffffffffffffffffffffffffffffffffffffffffffffffffffffff1916815260200190815260200160002060009054906101000a900460ff169050919050565b600d8054600181600116156101000203166002900480601f0160208091040260200160405190810160405280929190818152602001828054600181600116156101000203166002900480156106ae5780601f10610683576101008083540402835291602001916106ae565b820191906000526020600020905b81548152906001019060200180831161069157829003601f168201915b505050505081565b60006106c1826119c0565b610700576040517f08c379a00000000000000000000000000000000000000000000000000000000081526004016106f7906144c4565b60405180910390fd5b6006600083815260200190815260200160002060009054906101000a900473ffffffffffffffffffffffffffffffffffffffff169050919050565b600061074682610cbe565b90508073ffffffffffffffffffffffffffffffffffffffff168373ffffffffffffffffffffffffffffffffffffffff1614156107b7576040517f08c379a00000000000000000000000000000000000000000000000000000000081526004016107ae90614564565b60405180910390fd5b8073ffffffffffffffffffffffffffffffffffffffff166107d6611a32565b73ffffffffffffffffffffffffffffffffffffffff1614806108055750610804816107ff611a32565b611783565b5b610844576040517f08c379a000000000000000000000000000000000000000000000000000000000815260040161083b90614444565b60405180910390fd5b826006600084815260200190815260200160002060006101000a81548173ffffffffffffffffffffffffffffffffffffffff021916908373ffffffffffffffffffffffffffffffffffffffff160217905550818373ffffffffffffffffffffffffffffffffffffffff168273ffffffffffffffffffffffffffffffffffffffff167f8c5be1e5ebec7d5bd14f71427d1e84f3dd0314c0f7b2291e5b200ac8c7c3b92560405160405180910390a4505050565b606080600f6000848152602001908152602001600020805480602002602001604051908101604052809291908181526020016000905b828210156109be57838290600052602060002090600202016040518060400160405290816000820160009054906101000a900473ffffffffffffffffffffffffffffffffffffffff1673ffffffffffffffffffffffffffffffffffffffff1673ffffffffffffffffffffffffffffffffffffffff1681526020016001820154815250508152602001906001019061092c565b5050505090506060815167ffffffffffffffff811180156109de57600080fd5b50604051908082528060200260200182016040528015610a0d5781602001602082028036833780820191505090505b50905060005b8251811015610a5957828181518110610a2857fe5b602002602001015160200151828281518110610a4057fe5b6020026020010181815250508080600101915050610a13565b508092505050919050565b6000600b80549050905090565b610a82610a7c611a32565b82611a3a565b610ac1576040517f08c379a0000000000000000000000000000000000000000000000000000000008152600401610ab890614584565b60405180910390fd5b610acc838383611b18565b505050565b6000610adc83610e9e565b8210610b1d576040517f08c379a0000000000000000000000000000000000000000000000000000000008152600401610b1490614324565b60405180910390fd5b600960008473ffffffffffffffffffffffffffffffffffffffff1673ffffffffffffffffffffffffffffffffffffffff1681526020019081526020016000208281548110610b6757fe5b9060005260206000200154905092915050565b610b95838383604051806020016040528060008152506113ef565b505050565b610bab610ba5611a32565b82611a3a565b610bea576040517f08c379a0000000000000000000000000000000000000000000000000000000008152600401610be190614604565b60405180910390fd5b610bf381611b3c565b50565b6000610c00610a64565b8210610c41576040517f08c379a0000000000000000000000000000000000000000000000000000000008152600401610c38906145a4565b60405180910390fd5b600b8281548110610c4e57fe5b90600052602060002001549050919050565b600f6020528160005260406000208181548110610c7957fe5b9060005260206000209060020201600091509150508060000160009054906101000a900473ffffffffffffffffffffffffffffffffffffffff16908060010154905082565b6000806005600084815260200190815260200160002060009054906101000a900473ffffffffffffffffffffffffffffffffffffffff169050600073ffffffffffffffffffffffffffffffffffffffff168173ffffffffffffffffffffffffffffffffffffffff161415610d67576040517f08c379a0000000000000000000000000000000000000000000000000000000008152600401610d5e90614484565b60405180910390fd5b80915050919050565b60013087604051602001610d8592919061415c565b60405160208183030381529060405280519060200120604051602001610dab9190614188565b6040516020818303038152906040528051906020012086868660405160008152602001604052604051610de1949392919061429d565b6020604051602081039080840390855afa158015610e03573d6000803e3d6000fd5b5050506020604051035173ffffffffffffffffffffffffffffffffffffffff16610e2b611097565b73ffffffffffffffffffffffffffffffffffffffff1614610e81576040517f08c379a0000000000000000000000000000000000000000000000000000000008152600401610e7890614424565b60405180910390fd5b610e8c338784611b51565b610e968682611e6d565b505050505050565b60008073ffffffffffffffffffffffffffffffffffffffff168273ffffffffffffffffffffffffffffffffffffffff161415610f0f576040517f08c379a0000000000000000000000000000000000000000000000000000000008152600401610f0690614464565b60405180910390fd5b610f56600760008473ffffffffffffffffffffffffffffffffffffffff1673ffffffffffffffffffffffffffffffffffffffff168152602001908152602001600020611ec3565b9050919050565b610f65611a32565b73ffffffffffffffffffffffffffffffffffffffff16610f83611097565b73ffffffffffffffffffffffffffffffffffffffff1614610fd9576040517f08c379a0000000000000000000000000000000000000000000000000000000008152600401610fd090614504565b60405180910390fd5b600073ffffffffffffffffffffffffffffffffffffffff1660008054906101000a900473ffffffffffffffffffffffffffffffffffffffff1673ffffffffffffffffffffffffffffffffffffffff167f8be0079c531659141344cd1fd0a4f28419497f9722a3daafe3b4186f6b6457e060405160405180910390a360008060006101000a81548173ffffffffffffffffffffffffffffffffffffffff021916908373ffffffffffffffffffffffffffffffffffffffff160217905550565b60008060009054906101000a900473ffffffffffffffffffffffffffffffffffffffff16905090565b6110c8611a32565b73ffffffffffffffffffffffffffffffffffffffff166110e6611097565b73ffffffffffffffffffffffffffffffffffffffff161461113c576040517f08c379a000000000000000000000000000000000000000000000000000000000815260040161113390614504565b60405180910390fd5b61114581611ed1565b50565b600e8054600181600116156101000203166002900480601f0160208091040260200160405190810160405280929190818152602001828054600181600116156101000203166002900480156111de5780601f106111b3576101008083540402835291602001916111de565b820191906000526020600020905b8154815290600101906020018083116111c157829003601f168201915b505050505081565b6111ee611a32565b73ffffffffffffffffffffffffffffffffffffffff1661120c611097565b73ffffffffffffffffffffffffffffffffffffffff1614611262576040517f08c379a000000000000000000000000000000000000000000000000000000000815260040161125990614504565b60405180910390fd5b61126b81611eeb565b50565b611276611a32565b73ffffffffffffffffffffffffffffffffffffffff168273ffffffffffffffffffffffffffffffffffffffff1614156112e4576040517f08c379a00000000000000000000000000000000000000000000000000000000081526004016112db906143c4565b60405180910390fd5b80600860006112f1611a32565b73ffffffffffffffffffffffffffffffffffffffff1673ffffffffffffffffffffffffffffffffffffffff16815260200190815260200160002060008473ffffffffffffffffffffffffffffffffffffffff1673ffffffffffffffffffffffffffffffffffffffff16815260200190815260200160002060006101000a81548160ff0219169083151502179055508173ffffffffffffffffffffffffffffffffffffffff1661139e611a32565b73ffffffffffffffffffffffffffffffffffffffff167f17307eab39ab6107e8899845ad3d59bd9653f200f220920489ca2b5937696c31836040516113e39190614282565b60405180910390a35050565b6114006113fa611a32565b83611a3a565b61143f576040517f08c379a000000000000000000000000000000000000000000000000000000000815260040161143690614584565b60405180910390fd5b61144b84848484611f05565b50505050565b606080600f6000848152602001908152602001600020805480602002602001604051908101604052809291908181526020016000905b8282101561151957838290600052602060002090600202016040518060400160405290816000820160009054906101000a900473ffffffffffffffffffffffffffffffffffffffff1673ffffffffffffffffffffffffffffffffffffffff1673ffffffffffffffffffffffffffffffffffffffff16815260200160018201548152505081526020019060010190611487565b5050505090506060815167ffffffffffffffff8111801561153957600080fd5b506040519080825280602002602001820160405280156115685781602001602082028036833780820191505090505b50905060005b82518110156115e25782818151811061158357fe5b60200260200101516000015182828151811061159b57fe5b602002602001019073ffffffffffffffffffffffffffffffffffffffff16908173ffffffffffffffffffffffffffffffffffffffff1681525050808060010191505061156e565b508092505050919050565b60038054600181600116156101000203166002900480601f0160208091040260200160405190810160405280929190818152602001828054600181600116156101000203166002900480156116835780601f1061165857610100808354040283529160200191611683565b820191906000526020600020905b81548152906001019060200180831161166657829003601f168201915b505050505081565b6060611696826119c0565b6116d5576040517f08c379a00000000000000000000000000000000000000000000000000000000081526004016116cc90614544565b60405180910390fd5b6116de82611f61565b9050919050565b60028054600181600116156101000203166002900480601f01602080910402602001604051908101604052809291908181526020018280546001816001161561010002031660029004801561177b5780601f106117505761010080835404028352916020019161177b565b820191906000526020600020905b81548152906001019060200180831161175e57829003601f168201915b505050505081565b6000600860008473ffffffffffffffffffffffffffffffffffffffff1673ffffffffffffffffffffffffffffffffffffffff16815260200190815260200160002060008373ffffffffffffffffffffffffffffffffffffffff1673ffffffffffffffffffffffffffffffffffffffff16815260200190815260200160002060009054906101000a900460ff16905092915050565b61181f611a32565b73ffffffffffffffffffffffffffffffffffffffff1661183d611097565b73ffffffffffffffffffffffffffffffffffffffff1614611893576040517f08c379a000000000000000000000000000000000000000000000000000000000815260040161188a90614504565b60405180910390fd5b600073ffffffffffffffffffffffffffffffffffffffff168173ffffffffffffffffffffffffffffffffffffffff161415611903576040517f08c379a00000000000000000000000000000000000000000000000000000000081526004016118fa90614364565b60405180910390fd5b8073ffffffffffffffffffffffffffffffffffffffff1660008054906101000a900473ffffffffffffffffffffffffffffffffffffffff1673ffffffffffffffffffffffffffffffffffffffff167f8be0079c531659141344cd1fd0a4f28419497f9722a3daafe3b4186f6b6457e060405160405180910390a3806000806101000a81548173ffffffffffffffffffffffffffffffffffffffff021916908373ffffffffffffffffffffffffffffffffffffffff16021790555050565b6000806005600084815260200190815260200160002060009054906101000a900473ffffffffffffffffffffffffffffffffffffffff169050600073ffffffffffffffffffffffffffffffffffffffff168173ffffffffffffffffffffffffffffffffffffffff161415915050919050565b600033905090565b6000611a45826119c0565b611a84576040517f08c379a0000000000000000000000000000000000000000000000000000000008152600401611a7b90614404565b60405180910390fd5b6000611a8f83610cbe565b90508073ffffffffffffffffffffffffffffffffffffffff168473ffffffffffffffffffffffffffffffffffffffff161480611afe57508373ffffffffffffffffffffffffffffffffffffffff16611ae6846106b6565b73ffffffffffffffffffffffffffffffffffffffff16145b80611b0f5750611b0e8185611783565b5b91505092915050565b611b238383836120c2565b611b2d83826122f1565b611b37828261249a565b505050565b611b4e611b4882610cbe565b8261255e565b50565b611b5b8383612575565b6060815167ffffffffffffffff81118015611b7557600080fd5b50604051908082528060200260200182016040528015611ba45781602001602082028036833780820191505090505b5090506060825167ffffffffffffffff81118015611bc157600080fd5b50604051908082528060200260200182016040528015611bf05781602001602082028036833780820191505090505b50905060005b8351811015611e1f57600073ffffffffffffffffffffffffffffffffffffffff16848281518110611c2357fe5b60200260200101516000015173ffffffffffffffffffffffffffffffffffffffff161415611c86576040517f08c379a0000000000000000000000000000000000000000000000000000000008152600401611c7d906145e4565b60405180910390fd5b6000848281518110611c9457fe5b6020026020010151602001511415611ce1576040517f08c379a0000000000000000000000000000000000000000000000000000000008152600401611cd890614304565b60405180910390fd5b600f6000868152602001908152602001600020848281518110611d0057fe5b6020026020010151908060018154018082558091505060019003906000526020600020906002020160009091909190915060008201518160000160006101000a81548173ffffffffffffffffffffffffffffffffffffffff021916908373ffffffffffffffffffffffffffffffffffffffff160217905550602082015181600101555050838181518110611d9057fe5b602002602001015160000151838281518110611da857fe5b602002602001019073ffffffffffffffffffffffffffffffffffffffff16908173ffffffffffffffffffffffffffffffffffffffff1681525050838181518110611dee57fe5b602002602001015160200151828281518110611e0657fe5b6020026020010181815250508080600101915050611bf6565b50600083511115611e66577f99aba1d63749cfd5ad1afda7c4663840924d54eb5f005bbbeadedc6ec13674b2848383604051611e5d9392919061463f565b60405180910390a15b5050505050565b611e76826119c0565b611eb5576040517f08c379a0000000000000000000000000000000000000000000000000000000008152600401611eac906144e4565b60405180910390fd5b611ebf8282612596565b5050565b600081600001549050919050565b8060029080519060200190611ee7929190612f12565b5050565b8060039080519060200190611f01929190612f12565b5050565b611f10848484611b18565b611f1c848484846125c2565b611f5b576040517f08c379a0000000000000000000000000000000000000000000000000000000008152600401611f5290614344565b60405180910390fd5b50505050565b60606120bb600460008481526020019081526020016000208054600181600116156101000203166002900480601f01602080910402602001604051908101604052809291908181526020018280546001816001161561010002031660029004801561200d5780601f10611fe25761010080835404028352916020019161200d565b820191906000526020600020905b815481529060010190602001808311611ff057829003601f168201915b505050505060038054600181600116156101000203166002900480601f0160208091040260200160405190810160405280929190818152602001828054600181600116156101000203166002900480156120a85780601f1061207d576101008083540402835291602001916120a8565b820191906000526020600020905b81548152906001019060200180831161208b57829003601f168201915b50505050506127a390919063ffffffff16565b9050919050565b8273ffffffffffffffffffffffffffffffffffffffff166120e282610cbe565b73ffffffffffffffffffffffffffffffffffffffff1614612138576040517f08c379a000000000000000000000000000000000000000000000000000000000815260040161212f90614524565b60405180910390fd5b600073ffffffffffffffffffffffffffffffffffffffff168273ffffffffffffffffffffffffffffffffffffffff1614156121a8576040517f08c379a000000000000000000000000000000000000000000000000000000000815260040161219f906143a4565b60405180910390fd5b6121b1816128f3565b6121f8600760008573ffffffffffffffffffffffffffffffffffffffff1673ffffffffffffffffffffffffffffffffffffffff1681526020019081526020016000206129b1565b61223f600760008473ffffffffffffffffffffffffffffffffffffffff1673ffffffffffffffffffffffffffffffffffffffff1681526020019081526020016000206129d4565b816005600083815260200190815260200160002060006101000a81548173ffffffffffffffffffffffffffffffffffffffff021916908373ffffffffffffffffffffffffffffffffffffffff160217905550808273ffffffffffffffffffffffffffffffffffffffff168473ffffffffffffffffffffffffffffffffffffffff167fddf252ad1be2c89b69c2b068fc378daa952ba7f163c4a11628f55a4df523b3ef60405160405180910390a4505050565b60006123496001600960008673ffffffffffffffffffffffffffffffffffffffff1673ffffffffffffffffffffffffffffffffffffffff168152602001908152602001600020805490506129ea90919063ffffffff16565b90506000600a6000848152602001908152602001600020549050818114612436576000600960008673ffffffffffffffffffffffffffffffffffffffff1673ffffffffffffffffffffffffffffffffffffffff16815260200190815260200160002083815481106123b657fe5b9060005260206000200154905080600960008773ffffffffffffffffffffffffffffffffffffffff1673ffffffffffffffffffffffffffffffffffffffff168152602001908152602001600020838154811061240e57fe5b906000526020600020018190555081600a600083815260200190815260200160002081905550505b600960008573ffffffffffffffffffffffffffffffffffffffff1673ffffffffffffffffffffffffffffffffffffffff16815260200190815260200160002080548061247e57fe5b6001900381819060005260206000200160009055905550505050565b600960008373ffffffffffffffffffffffffffffffffffffffff1673ffffffffffffffffffffffffffffffffffffffff16815260200190815260200160002080549050600a600083815260200190815260200160002081905550600960008373ffffffffffffffffffffffffffffffffffffffff1673ffffffffffffffffffffffffffffffffffffffff1681526020019081526020016000208190806001815401808255809150506001900390600052602060002001600090919091909150555050565b6125688282612a3a565b61257181612a74565b5050565b61257f8282612ac6565b612589828261249a565b61259281612c78565b5050565b806004600084815260200190815260200160002090805190602001906125bd929190612f12565b505050565b60006125e38473ffffffffffffffffffffffffffffffffffffffff16612cc1565b6125f0576001905061279b565b600060608573ffffffffffffffffffffffffffffffffffffffff1663150b7a0260e01b61261b611a32565b89888860405160240161263194939291906141c9565b604051602081830303815290604052907bffffffffffffffffffffffffffffffffffffffffffffffffffffffff19166020820180517bffffffffffffffffffffffffffffffffffffffffffffffffffffffff838183161783525050505060405161269b9190614145565b6000604051808303816000865af19150503d80600081146126d8576040519150601f19603f3d011682016040523d82523d6000602084013e6126dd565b606091505b509150915081612735576000815111156126fa5780518082602001fd5b6040517f08c379a000000000000000000000000000000000000000000000000000000000815260040161272c90614344565b60405180910390fd5b60008180602001905181019061274b91906133e6565b905063150b7a0260e01b7bffffffffffffffffffffffffffffffffffffffffffffffffffffffff1916817bffffffffffffffffffffffffffffffffffffffffffffffffffffffff19161493505050505b949350505050565b60608083905060608390506060815183510167ffffffffffffffff811180156127cb57600080fd5b506040519080825280601f01601f1916602001820160405280156127fe5781602001600182028036833780820191505090505b5090506000805b84518110156128735784818151811061281a57fe5b602001015160f81c60f81b83838060010194508151811061283757fe5b60200101907effffffffffffffffffffffffffffffffffffffffffffffffffffffffffffff1916908160001a9053508080600101915050612805565b5060005b83518110156128e55783818151811061288c57fe5b602001015160f81c60f81b8383806001019450815181106128a957fe5b60200101907effffffffffffffffffffffffffffffffffffffffffffffffffffffffffffff1916908160001a9053508080600101915050612877565b508194505050505092915050565b600073ffffffffffffffffffffffffffffffffffffffff166006600083815260200190815260200160002060009054906101000a900473ffffffffffffffffffffffffffffffffffffffff1673ffffffffffffffffffffffffffffffffffffffff16146129ae5760006006600083815260200190815260200160002060006101000a81548173ffffffffffffffffffffffffffffffffffffffff021916908373ffffffffffffffffffffffffffffffffffffffff1602179055505b50565b6129c9600182600001546129ea90919063ffffffff16565b816000018190555050565b6001816000016000828254019250508190555050565b600082821115612a2f576040517f08c379a0000000000000000000000000000000000000000000000000000000008152600401612a26906143e4565b60405180910390fd5b818303905092915050565b612a448282612cd4565b612a4e82826122f1565b6000600a600083815260200190815260200160002081905550612a7081612e4d565b5050565b60006004600083815260200190815260200160002080546001816001161561010002031660029004905014612ac357600460008281526020019081526020016000206000612ac29190612f92565b5b50565b600073ffffffffffffffffffffffffffffffffffffffff168273ffffffffffffffffffffffffffffffffffffffff161415612b36576040517f08c379a0000000000000000000000000000000000000000000000000000000008152600401612b2d906144a4565b60405180910390fd5b612b3f816119c0565b15612b7f576040517f08c379a0000000000000000000000000000000000000000000000000000000008152600401612b7690614384565b60405180910390fd5b816005600083815260200190815260200160002060006101000a81548173ffffffffffffffffffffffffffffffffffffffff021916908373ffffffffffffffffffffffffffffffffffffffff160217905550612c18600760008473ffffffffffffffffffffffffffffffffffffffff1673ffffffffffffffffffffffffffffffffffffffff1681526020019081526020016000206129d4565b808273ffffffffffffffffffffffffffffffffffffffff16600073ffffffffffffffffffffffffffffffffffffffff167fddf252ad1be2c89b69c2b068fc378daa952ba7f163c4a11628f55a4df523b3ef60405160405180910390a45050565b600b80549050600c600083815260200190815260200160002081905550600b81908060018154018082558091505060019003906000526020600020016000909190919091505550565b600080823b905060008111915050919050565b8173ffffffffffffffffffffffffffffffffffffffff16612cf482610cbe565b73ffffffffffffffffffffffffffffffffffffffff1614612d4a576040517f08c379a0000000000000000000000000000000000000000000000000000000008152600401612d41906145c4565b60405180910390fd5b612d53816128f3565b612d9a600760008473ffffffffffffffffffffffffffffffffffffffff1673ffffffffffffffffffffffffffffffffffffffff1681526020019081526020016000206129b1565b60006005600083815260200190815260200160002060006101000a81548173ffffffffffffffffffffffffffffffffffffffff021916908373ffffffffffffffffffffffffffffffffffffffff16021790555080600073ffffffffffffffffffffffffffffffffffffffff168373ffffffffffffffffffffffffffffffffffffffff167fddf252ad1be2c89b69c2b068fc378daa952ba7f163c4a11628f55a4df523b3ef60405160405180910390a45050565b6000612e686001600b805490506129ea90919063ffffffff16565b90506000600c60008481526020019081526020016000205490506000600b8381548110612e9157fe5b9060005260206000200154905080600b8381548110612eac57fe5b906000526020600020018190555081600c600083815260200190815260200160002081905550600b805480612edd57fe5b600190038181906000526020600020016000905590556000600c60008681526020019081526020016000208190555050505050565b828054600181600116156101000203166002900490600052602060002090601f016020900481019282601f10612f5357805160ff1916838001178555612f81565b82800160010185558215612f81579182015b82811115612f80578251825591602001919060010190612f65565b5b509050612f8e9190612fda565b5090565b50805460018160011615610100020316600290046000825580601f10612fb85750612fd7565b601f016020900490600052602060002090810190612fd69190612fda565b5b50565b5b80821115612ff3576000816000905550600101612fdb565b5090565b60008135905061300681614983565b92915050565b60008135905061301b8161499a565b92915050565b600082601f83011261303257600080fd5b8135613045613040826146b1565b614684565b9150818183526020840193506020810190508385604084028201111561306a57600080fd5b60005b8381101561309a578161308088826131a0565b84526020840193506040830192505060018101905061306d565b5050505092915050565b6000813590506130b3816149b1565b92915050565b6000813590506130c8816149c8565b92915050565b6000813590506130dd816149df565b92915050565b6000815190506130f2816149df565b92915050565b600082601f83011261310957600080fd5b813561311c613117826146d9565b614684565b9150808252602083016020830185838301111561313857600080fd5b6131438382846148eb565b50505092915050565b600082601f83011261315d57600080fd5b813561317061316b82614705565b614684565b9150808252602083016020830185838301111561318c57600080fd5b6131978382846148eb565b50505092915050565b6000604082840312156131b257600080fd5b6131bc6040614684565b905060006131cc8482850161300c565b60008301525060206131e0848285016131ec565b60208301525092915050565b6000813590506131fb816149f6565b92915050565b60008135905061321081614a0d565b92915050565b60006020828403121561322857600080fd5b600061323684828501612ff7565b91505092915050565b6000806040838503121561325257600080fd5b600061326085828601612ff7565b925050602061327185828601612ff7565b9150509250929050565b60008060006060848603121561329057600080fd5b600061329e86828701612ff7565b93505060206132af86828701612ff7565b92505060406132c0868287016131ec565b9150509250925092565b600080600080608085870312156132e057600080fd5b60006132ee87828801612ff7565b94505060206132ff87828801612ff7565b9350506040613310878288016131ec565b925050606085013567ffffffffffffffff81111561332d57600080fd5b613339878288016130f8565b91505092959194509250565b6000806040838503121561335857600080fd5b600061336685828601612ff7565b9250506020613377858286016130a4565b9150509250929050565b6000806040838503121561339457600080fd5b60006133a285828601612ff7565b92505060206133b3858286016131ec565b9150509250929050565b6000602082840312156133cf57600080fd5b60006133dd848285016130ce565b91505092915050565b6000602082840312156133f857600080fd5b6000613406848285016130e3565b91505092915050565b60006020828403121561342157600080fd5b600082013567ffffffffffffffff81111561343b57600080fd5b6134478482850161314c565b91505092915050565b60006020828403121561346257600080fd5b6000613470848285016131ec565b91505092915050565b6000806040838503121561348c57600080fd5b600061349a858286016131ec565b92505060206134ab858286016131ec565b9150509250929050565b60008060008060008060c087890312156134ce57600080fd5b60006134dc89828a016131ec565b96505060206134ed89828a01613201565b95505060406134fe89828a016130b9565b945050606061350f89828a016130b9565b935050608087013567ffffffffffffffff81111561352c57600080fd5b61353889828a01613021565b92505060a087013567ffffffffffffffff81111561355557600080fd5b61356189828a0161314c565b9150509295509295509295565b600061357a83836135b6565b60208301905092915050565b600061359283836135d4565b60208301905092915050565b60006135aa8383614101565b60208301905092915050565b6135bf8161483c565b82525050565b6135ce8161483c565b82525050565b6135dd8161482a565b82525050565b6135ec8161482a565b82525050565b60006135fd82614761565b61360781856147bf565b935061361283614731565b8060005b8381101561364357815161362a8882613586565b975061363583614798565b925050600181019050613616565b5085935050505092915050565b600061365b8261476c565b61366581856147d0565b935061367083614741565b8060005b838110156136a1578151613688888261356e565b9750613693836147a5565b925050600181019050613674565b5085935050505092915050565b60006136b982614777565b6136c381856147e1565b93506136ce83614751565b8060005b838110156136ff5781516136e6888261359e565b97506136f1836147b2565b9250506001810190506136d2565b5085935050505092915050565b6137158161484e565b82525050565b6137248161485a565b82525050565b61373b6137368261485a565b61493f565b82525050565b600061374c82614782565b61375681856147f2565b93506137668185602086016148fa565b61376f81614965565b840191505092915050565b600061378582614782565b61378f8185614803565b935061379f8185602086016148fa565b80840191505092915050565b6137bc6137b7826148c7565b61492d565b82525050565b60006137cd8261478d565b6137d7818561480e565b93506137e78185602086016148fa565b6137f081614965565b840191505092915050565b6000613808601c8361480e565b91507f4665652076616c75652073686f756c6420626520706f736974697665000000006000830152602082019050919050565b6000613848601c8361481f565b91507f19457468657265756d205369676e6564204d6573736167653a0a3332000000006000830152601c82019050919050565b6000613888602b8361480e565b91507f455243373231456e756d657261626c653a206f776e657220696e646578206f7560008301527f74206f6620626f756e64730000000000000000000000000000000000000000006020830152604082019050919050565b60006138ee60328361480e565b91507f4552433732313a207472616e7366657220746f206e6f6e20455243373231526560008301527f63656976657220696d706c656d656e74657200000000000000000000000000006020830152604082019050919050565b600061395460268361480e565b91507f4f776e61626c653a206e6577206f776e657220697320746865207a65726f206160008301527f64647265737300000000000000000000000000000000000000000000000000006020830152604082019050919050565b60006139ba601c8361480e565b91507f4552433732313a20746f6b656e20616c7265616479206d696e746564000000006000830152602082019050919050565b60006139fa60248361480e565b91507f4552433732313a207472616e7366657220746f20746865207a65726f2061646460008301527f72657373000000000000000000000000000000000000000000000000000000006020830152604082019050919050565b6000613a6060198361480e565b91507f4552433732313a20617070726f766520746f2063616c6c6572000000000000006000830152602082019050919050565b6000613aa0601e8361480e565b91507f536166654d6174683a207375627472616374696f6e206f766572666c6f7700006000830152602082019050919050565b6000613ae0602c8361480e565b91507f4552433732313a206f70657261746f7220717565727920666f72206e6f6e657860008301527f697374656e7420746f6b656e00000000000000000000000000000000000000006020830152604082019050919050565b6000613b4660198361480e565b91507f6f776e65722073686f756c64207369676e20746f6b656e4964000000000000006000830152602082019050919050565b6000613b8660388361480e565b91507f4552433732313a20617070726f76652063616c6c6572206973206e6f74206f7760008301527f6e6572206e6f7220617070726f76656420666f7220616c6c00000000000000006020830152604082019050919050565b6000613bec602a8361480e565b91507f4552433732313a2062616c616e636520717565727920666f7220746865207a6560008301527f726f2061646472657373000000000000000000000000000000000000000000006020830152604082019050919050565b6000613c5260298361480e565b91507f4552433732313a206f776e657220717565727920666f72206e6f6e657869737460008301527f656e7420746f6b656e00000000000000000000000000000000000000000000006020830152604082019050919050565b6000613cb860208361480e565b91507f4552433732313a206d696e7420746f20746865207a65726f20616464726573736000830152602082019050919050565b6000613cf8602c8361480e565b91507f4552433732313a20617070726f76656420717565727920666f72206e6f6e657860008301527f697374656e7420746f6b656e00000000000000000000000000000000000000006020830152604082019050919050565b6000613d5e602c8361480e565b91507f4552433732314d657461646174613a2055524920736574206f66206e6f6e657860008301527f697374656e7420746f6b656e00000000000000000000000000000000000000006020830152604082019050919050565b6000613dc460208361480e565b91507f4f776e61626c653a2063616c6c6572206973206e6f7420746865206f776e65726000830152602082019050919050565b6000613e0460298361480e565b91507f4552433732313a207472616e73666572206f6620746f6b656e2074686174206960008301527f73206e6f74206f776e00000000000000000000000000000000000000000000006020830152604082019050919050565b6000613e6a602f8361480e565b91507f4552433732314d657461646174613a2055524920717565727920666f72206e6f60008301527f6e6578697374656e7420746f6b656e00000000000000000000000000000000006020830152604082019050919050565b6000613ed060218361480e565b91507f4552433732313a20617070726f76616c20746f2063757272656e74206f776e6560008301527f72000000000000000000000000000000000000000000000000000000000000006020830152604082019050919050565b6000613f3660318361480e565b91507f4552433732313a207472616e736665722063616c6c6572206973206e6f74206f60008301527f776e6572206e6f7220617070726f7665640000000000000000000000000000006020830152604082019050919050565b6000613f9c602c8361480e565b91507f455243373231456e756d657261626c653a20676c6f62616c20696e646578206f60008301527f7574206f6620626f756e647300000000000000000000000000000000000000006020830152604082019050919050565b600061400260258361480e565b91507f4552433732313a206275726e206f6620746f6b656e2074686174206973206e6f60008301527f74206f776e0000000000000000000000000000000000000000000000000000006020830152604082019050919050565b6000614068601b8361480e565b91507f526563697069656e742073686f756c642062652070726573656e7400000000006000830152602082019050919050565b60006140a860308361480e565b91507f4552433732314275726e61626c653a2063616c6c6572206973206e6f74206f7760008301527f6e6572206e6f7220617070726f766564000000000000000000000000000000006020830152604082019050919050565b61410a816148b0565b82525050565b614119816148b0565b82525050565b61413061412b826148b0565b61495b565b82525050565b61413f816148ba565b82525050565b6000614151828461377a565b915081905092915050565b600061416882856137ab565b601482019150614178828461411f565b6020820191508190509392505050565b60006141938261383b565b915061419f828461372a565b60208201915081905092915050565b60006020820190506141c360008301846135e3565b92915050565b60006080820190506141de60008301876135c5565b6141eb60208301866135e3565b6141f86040830185614110565b818103606083015261420a8184613741565b905095945050505050565b600060408201905061422a60008301856135c5565b6142376020830184614110565b9392505050565b600060208201905081810360008301526142588184613650565b905092915050565b6000602082019050818103600083015261427a81846136ae565b905092915050565b6000602082019050614297600083018461370c565b92915050565b60006080820190506142b2600083018761371b565b6142bf6020830186614136565b6142cc604083018561371b565b6142d9606083018461371b565b95945050505050565b600060208201905081810360008301526142fc81846137c2565b905092915050565b6000602082019050818103600083015261431d816137fb565b9050919050565b6000602082019050818103600083015261433d8161387b565b9050919050565b6000602082019050818103600083015261435d816138e1565b9050919050565b6000602082019050818103600083015261437d81613947565b9050919050565b6000602082019050818103600083015261439d816139ad565b9050919050565b600060208201905081810360008301526143bd816139ed565b9050919050565b600060208201905081810360008301526143dd81613a53565b9050919050565b600060208201905081810360008301526143fd81613a93565b9050919050565b6000602082019050818103600083015261441d81613ad3565b9050919050565b6000602082019050818103600083015261443d81613b39565b9050919050565b6000602082019050818103600083015261445d81613b79565b9050919050565b6000602082019050818103600083015261447d81613bdf565b9050919050565b6000602082019050818103600083015261449d81613c45565b9050919050565b600060208201905081810360008301526144bd81613cab565b9050919050565b600060208201905081810360008301526144dd81613ceb565b9050919050565b600060208201905081810360008301526144fd81613d51565b9050919050565b6000602082019050818103600083015261451d81613db7565b9050919050565b6000602082019050818103600083015261453d81613df7565b9050919050565b6000602082019050818103600083015261455d81613e5d565b9050919050565b6000602082019050818103600083015261457d81613ec3565b9050919050565b6000602082019050818103600083015261459d81613f29565b9050919050565b600060208201905081810360008301526145bd81613f8f565b9050919050565b600060208201905081810360008301526145dd81613ff5565b9050919050565b600060208201905081810360008301526145fd8161405b565b9050919050565b6000602082019050818103600083015261461d8161409b565b9050919050565b60006020820190506146396000830184614110565b92915050565b60006060820190506146546000830186614110565b818103602083015261466681856135f2565b9050818103604083015261467a81846136ae565b9050949350505050565b6000604051905081810181811067ffffffffffffffff821117156146a757600080fd5b8060405250919050565b600067ffffffffffffffff8211156146c857600080fd5b602082029050602081019050919050565b600067ffffffffffffffff8211156146f057600080fd5b601f19601f8301169050602081019050919050565b600067ffffffffffffffff82111561471c57600080fd5b601f19601f8301169050602081019050919050565b6000819050602082019050919050565b6000819050602082019050919050565b6000819050602082019050919050565b600081519050919050565b600081519050919050565b600081519050919050565b600081519050919050565b600081519050919050565b6000602082019050919050565b6000602082019050919050565b6000602082019050919050565b600082825260208201905092915050565b600082825260208201905092915050565b600082825260208201905092915050565b600082825260208201905092915050565b600081905092915050565b600082825260208201905092915050565b600081905092915050565b600061483582614890565b9050919050565b600061484782614890565b9050919050565b60008115159050919050565b6000819050919050565b60007fffffffff0000000000000000000000000000000000000000000000000000000082169050919050565b600073ffffffffffffffffffffffffffffffffffffffff82169050919050565b6000819050919050565b600060ff82169050919050565b60006148d2826148d9565b9050919050565b60006148e482614890565b9050919050565b82818337600083830152505050565b60005b838110156149185780820151818401526020810190506148fd565b83811115614927576000848401525b50505050565b600061493882614949565b9050919050565b6000819050919050565b600061495482614976565b9050919050565b6000819050919050565b6000601f19601f8301169050919050565b60008160601b9050919050565b61498c8161482a565b811461499757600080fd5b50565b6149a38161483c565b81146149ae57600080fd5b50565b6149ba8161484e565b81146149c557600080fd5b50565b6149d18161485a565b81146149dc57600080fd5b50565b6149e881614864565b81146149f357600080fd5b50565b6149ff816148b0565b8114614a0a57600080fd5b50565b614a16816148ba565b8114614a2157600080fd5b5056fea264697066735822122021f945dd8c0b3479c38aa5a09acea3ebe58b25ddb5af8d824b31ec15f9603c2b64736f6c634300060c0033",
  "immutableReferences": {},
  "source": "pragma solidity ^0.6.12;\npragma experimental ABIEncoderV2;\n\nimport \"../lib/interface/IERC721.sol\";\nimport \"../lib/contracts/ERC721Base.sol\";\nimport \"@openzeppelin/contracts/access/Ownable.sol\";\n\n/**\n * @title DavinciToken\n * @dev anyone can mint token.\n */\ncontract DavinciToken is Ownable, IERC721, ERC721Base {\n\n    constructor (string memory name, string memory symbol, address newOwner, string memory contractURI, string memory tokenURIPrefix) public ERC721Base(name, symbol, contractURI, tokenURIPrefix) {\n        _registerInterface(bytes4(keccak256('MINT_WITH_ADDRESS')));\n        transferOwnership(newOwner);\n    }\n    \n    function mint(uint256 tokenId, uint8 v, bytes32 r, bytes32 s, Fee[] memory _fees, string memory tokenURI) public {\n        require(owner() == ecrecover(keccak256(abi.encodePacked(\"\\x19Ethereum Signed Message:\\n32\", keccak256(abi.encodePacked(this, tokenId)))), v, r, s), \"owner should sign tokenId\");\n        _mint(msg.sender, tokenId, _fees);\n        _setTokenURI(tokenId, tokenURI);\n    }\n\n    function setTokenURIPrefix(string memory tokenURIPrefix) public onlyOwner {\n        _setTokenURIPrefix(tokenURIPrefix);\n    }\n\n    function setContractURI(string memory contractURI) public onlyOwner {\n        _setContractURI(contractURI);\n    }\n}",
  "sourcePath": "G:\\bmgalego\\davinci_nft_marketplace-88e013892e1ec5dfb0e076afa2b4e51f04718b44\\contracts\\token\\DavinciToken.sol",
  "compiler": {
    "name": "solc",
    "version": "0.6.12+commit.27d51765.Emscripten.clang"
  },
  "schemaVersion": "3.3.4",
  "updatedAt": "2021-04-18T15:35:23.467Z",
  "devdoc": {
    "details": "anyone can mint token.",
    "kind": "dev",
    "methods": {
      "approve(address,uint256)": {
        "details": "Approves another address to transfer the given token ID The zero address indicates there is no approved address. There can only be one approved address per token at a given time. Can only be called by the token owner or an approved operator.",
        "params": {
          "to": "address to be approved for the given token ID",
          "tokenId": "uint256 ID of the token to be approved"
        }
      },
      "balanceOf(address)": {
        "details": "Gets the balance of the specified address.",
        "params": {
          "owner": "address to query the balance of"
        },
        "returns": {
          "_0": "uint256 representing the amount owned by the passed address"
        }
      },
      "burn(uint256)": {
        "details": "Burns a specific ERC721 token.",
        "params": {
          "tokenId": "uint256 id of the ERC721 token to be burned."
        }
      },
      "getApproved(uint256)": {
        "details": "Gets the approved address for a token ID, or zero if no address set Reverts if the token ID does not exist.",
        "params": {
          "tokenId": "uint256 ID of the token to query the approval of"
        },
        "returns": {
          "_0": "address currently approved for the given token ID"
        }
      },
      "isApprovedForAll(address,address)": {
        "details": "Tells whether an operator is approved by a given owner.",
        "params": {
          "operator": "operator address which you want to query the approval of",
          "owner": "owner address which you want to query the approval of"
        },
        "returns": {
          "_0": "bool whether the given operator is approved by the given owner"
        }
      },
      "owner()": {
        "details": "Returns the address of the current owner."
      },
      "ownerOf(uint256)": {
        "details": "Gets the owner of the specified token ID.",
        "params": {
          "tokenId": "uint256 ID of the token to query the owner of"
        },
        "returns": {
          "_0": "address currently marked as the owner of the given token ID"
        }
      },
      "renounceOwnership()": {
        "details": "Leaves the contract without owner. It will not be possible to call `onlyOwner` functions anymore. Can only be called by the current owner. NOTE: Renouncing ownership will leave the contract without an owner, thereby removing any functionality that is only available to the owner."
      },
      "safeTransferFrom(address,address,uint256)": {
        "details": "Safely transfers the ownership of a given token ID to another address If the target address is a contract, it must implement {IERC721Receiver-onERC721Received}, which is called upon a safe transfer, and return the magic value `bytes4(keccak256(\"onERC721Received(address,address,uint256,bytes)\"))`; otherwise, the transfer is reverted. Requires the msg.sender to be the owner, approved, or operator",
        "params": {
          "from": "current owner of the token",
          "to": "address to receive the ownership of the given token ID",
          "tokenId": "uint256 ID of the token to be transferred"
        }
      },
      "safeTransferFrom(address,address,uint256,bytes)": {
        "details": "Safely transfers the ownership of a given token ID to another address If the target address is a contract, it must implement {IERC721Receiver-onERC721Received}, which is called upon a safe transfer, and return the magic value `bytes4(keccak256(\"onERC721Received(address,address,uint256,bytes)\"))`; otherwise, the transfer is reverted. Requires the _msgSender() to be the owner, approved, or operator",
        "params": {
          "_data": "bytes data to send along with a safe transfer check",
          "from": "current owner of the token",
          "to": "address to receive the ownership of the given token ID",
          "tokenId": "uint256 ID of the token to be transferred"
        }
      },
      "setApprovalForAll(address,bool)": {
        "details": "Sets or unsets the approval of a given operator An operator is allowed to transfer all tokens of the sender on their behalf.",
        "params": {
          "approved": "representing the status of the approval to be set",
          "to": "operator address to set the approval"
        }
      },
      "supportsInterface(bytes4)": {
        "details": "See {IERC165-supportsInterface}. Time complexity O(1), guaranteed to always use less than 30 000 gas."
      },
      "tokenByIndex(uint256)": {
        "details": "Gets the token ID at a given index of all the tokens in this contract Reverts if the index is greater or equal to the total number of tokens.",
        "params": {
          "index": "uint256 representing the index to be accessed of the tokens list"
        },
        "returns": {
          "_0": "uint256 token ID at the given index of the tokens list"
        }
      },
      "tokenOfOwnerByIndex(address,uint256)": {
        "details": "Gets the token ID at a given index of the tokens list of the requested owner.",
        "params": {
          "index": "uint256 representing the index to be accessed of the requested tokens list",
          "owner": "address owning the tokens list to be accessed"
        },
        "returns": {
          "_0": "uint256 token ID at the given index of the tokens list owned by the requested address"
        }
      },
      "tokenURI(uint256)": {
        "details": "Returns an URI for a given token ID. Throws if the token ID does not exist. May return an empty string.",
        "params": {
          "tokenId": "uint256 ID of the token to query"
        }
      },
      "totalSupply()": {
        "details": "Gets the total amount of tokens stored by the contract.",
        "returns": {
          "_0": "uint256 representing the total amount of tokens"
        }
      },
      "transferFrom(address,address,uint256)": {
        "details": "Transfers the ownership of a given token ID to another address. Usage of this method is discouraged, use {safeTransferFrom} whenever possible. Requires the msg.sender to be the owner, approved, or operator.",
        "params": {
          "from": "current owner of the token",
          "to": "address to receive the ownership of the given token ID",
          "tokenId": "uint256 ID of the token to be transferred"
        }
      },
      "transferOwnership(address)": {
        "details": "Transfers ownership of the contract to a new account (`newOwner`). Can only be called by the current owner."
      }
    },
    "title": "DavinciToken",
    "version": 1
  },
  "userdoc": {
    "kind": "user",
    "methods": {},
    "version": 1
  }
}